:020000040800F2
:100000000020002021250008CD0E0008D10E000898
:10001000D50E0008D90E0008DD0E00080000000013
:10002000000000000000000000000000E10E0008D9
:10003000E50E000800000000E90E0008ED0E0008C3
:100040006925000869250008692500086925000858
:100050006925000869250008692500086925000848
:100060006925000869250008692500086925000838
:100070006925000869250008692500086925000828
:1000800069250008692500086925000800000000AE
:1000900000000000000000000000000069250008CA
:1000A00069250008692500086925000869250008F8
:1000B000F90E00082D1500086925000869250008BB
:1000C0006925000800000000000000006925000804
:1000D00069250008692500086925000869250008C8
:1000E000692500086925000869250008000000004E
:1000F0000000000000000000000000000000000000
:1001000000000000000000000000000000000000EF
:1001100000000000000000006925000869250008B3
:1001200000000000000000000000000000000000CF
:1001300000000000000000000000000000000000BF
:1001400000000000000000000000000000000000AF
:10015000000000000000000000000000000000009F
:10016000000000000000000000000000000000008F
:10017000000000000000000000000000000000007F
:10018000000000000000000000000000000000006F
:10019000000000000000000000000000000000005F
:1001A000000000000000000000000000000000004F
:1001B000000000000000000000000000000000003F
:1001C0000000000000000000000000005FF808F1DF
:1001D000044B05481B1A062B02D9044B03B11847E0
:1001E000704700BF93000020900000200000000036
:1001F00005490648091A891001EBD171491002D04E
:10020000034B03B118477047900000209000002076
:100210000000000010B5064C237843B9FFF7D8FF63
:10022000044B13B10448AFF300800123237010BDC9
:100230009000002000000000FC2D000808B5084BCD
:100240001BB108480849AFF300800848036813B998
:10025000BDE80840CCE7064B002BF9D09847F7E7FC
:1002600000000000FC2D00089400002090000020F9
:1002700000000000104B1A6842F001021A60596831
:100280000E4A0A405A601A6822F0847222F48032C0
:100290001A601A6822F480221A605A6822F4FE0258
:1002A0005A604FF41F029A600022DA624FF0006237
:1002B000034B9A60704700BF001002400000FFF837
:1002C00000ED00E010B4036A046A24F00104046243
:1002D000846924F0F00444EA021223F00A0319436B
:1002E000826101625DF8044B704700BF10B4036A7D
:1002F00023F0100303628469036A24F4704444EA1F
:10030000023223F0A00343EA0111826101625DF829
:10031000044B7047836823F0700341F007010B43DF
:100320008360704710B4846824F47F4442EA032356
:1003300019430C4384605DF8044B70470268D3682E
:1003400043F00103D3600268136843F001031360B4
:100350000020704738B590F83C30012B00F08380C6
:100360000D460446012380F83C30022380F83D30DE
:100370000268936823F47F4323F0770393600B684C
:10038000402B4CD00AD8102B58D002D8002B50D07C
:1003900062E0202B57D0302B5AD05DE0702B12D06A
:1003A00004D8502B27D0602B2FD055E0B3F5805FB9
:1003B00003D0B3F5005F12D04EE00268936823F0DB
:1003C0000703936048E0006889686A68EB68FFF794
:1003D000A9FF2268936843F0770393603CE00068CC
:1003E00089686A68EB68FFF79DFF2268936843F4A9
:1003F0008043936030E000684968EA68FFF762FF75
:1004000020685021FFF786FF26E000684968EA6807
:10041000FFF76CFF20686021FFF77CFF1CE000689D
:100420004968EA68FFF74EFF20684021FFF772FF36
:1004300012E000680021FFF76DFF0DE00068102159
:10044000FFF768FF08E000682021FFF763FF03E083
:1004500000683021FFF75EFF012384F83D30002063
:1004600084F83C0038BD022038BD00BF704700BF93
:10047000704700BF704700BF704700BF704700BFA4
:1004800010B5044603681A6912F0020F17D0DA6833
:1004900012F0020F13D06FF002021A6101230377EA
:1004A00003689B6913F0030F02D0FFF7E3FF04E03A
:1004B000FFF7DEFF2046FFF7DFFF002323772368E7
:1004C0001A6912F0040F19D0DA6812F0040F15D06F
:1004D0006FF004021A610223237723689B6913F4E7
:1004E000407F03D02046FFF7C5FF05E02046FFF719
:1004F000BFFF2046FFF7C0FF0023237723681A6958
:1005000012F0080F19D0DA6812F0080F15D06FF04A
:1005100008021A61042323772368DB6913F0030FB1
:1005200003D02046FFF7A6FF05E02046FFF7A0FF17
:100530002046FFF7A1FF0023237723681A6912F0F2
:10054000100F19D0DA6812F0100F15D06FF01002EA
:100550001A61082323772368DB6913F4407F03D0F3
:100560002046FFF787FF05E02046FFF781FF204682
:10057000FFF782FF0023237723681A6912F0010F27
:1005800009D0DA6812F0010F05D06FF001021A618C
:100590002046FFF76BFF23681A6912F0800F09D01D
:1005A000DA6812F0800F05D06FF080021A612046E1
:1005B00000F0B8F823681A6912F0400F09D0DA6821
:1005C00012F0400F05D06FF040021A612046FFF78D
:1005D00055FF23681A6912F0200F09D0DA6812F06B
:1005E000200F05D06FF020021A61204600F098F825
:1005F00010BD00BF0368264A90420AD0B0F1804F78
:1006000007D0A2F59432904203D002F58062904266
:1006100003D123F070034A6813431D4A904216D059
:10062000B0F1804F13D0A2F5943290420FD002F572
:10063000806290420BD002F59C32904207D002F5C6
:100640008062904203D002F58062904203D123F48D
:100650004073CA68134323F080034A69134303605D
:100660008B68C3620B688362094B98420BD003F519
:10067000A053984207D003F58063984203D003F556
:100680008063984201D10B69036301234361704782
:10069000002C0140C0B110B5044690F83D3013F075
:1006A000FF0F04D1002380F83C3000F003F902234F
:1006B00084F83D30214651F8040BFFF79BFF0123DE
:1006C00084F83D30002010BD0120704790F83C3088
:1006D000012B21D030B4012280F83C20022380F885
:1006E0003D300468636823F07003636004686568E4
:1006F0000B682B4363600468A36823F08003A36046
:100700000468A5684B682B43A36080F83D20002354
:1007100080F83C30184601E00220704730BC70473A
:10072000704700BF704700BF00F00700064AD3685B
:1007300023F4E0631B041B0C43EA002040F0BF607D
:1007400040F40030D060704700ED00E030B4164B4C
:10075000DC68C4F30224C4F10705042D28BF042576
:10076000231D062B01D9033C00E00024012303FADA
:1007700005F5013D2940A140A340013B1A400A4331
:10078000002806DA00F00F001201D2B2074B1A540B
:1007900007E01201D2B200F1604000F5614080F83C
:1007A000002330BC704700BF00ED00E014ED00E016
:1007B000410900F01F0001238340024A42F8213022
:1007C000704700BF00E100E00138B0F1807F0AD23D
:1007D000064B5860F021064A82F8231000209860EA
:1007E00007221A6070470120704700BF10E000E048
:1007F00000ED00E0042805D1054A136843F0040326
:1008000013607047024A136823F0040313607047B3
:1008100010E000E0704700BF08B5FFF7FBFF08BD20
:1008200000B583B0214B9A6942F001029A619B693D
:1008300003F001030193019B0320FFF775FF6FF0A5
:100840000B0000210A46FFF781FF6FF00A0000212C
:100850000A46FFF77BFF6FF0090000210A46FFF709
:1008600075FF6FF0040000210A46FFF76FFF6FF07D
:10087000030000210A46FFF769FF6FF00100002125
:100880000A46FFF763FF4FF0FF3000210A46FFF7EB
:100890005DFF074B5A6822F0E0625A605A6842F0E6
:1008A00080625A6003B05DF804FB00BF0010024094
:1008B0000000014000B583B00368B3F1804F13D14D
:1008C00003F50433DA6942F00102DA61DB6903F00F
:1008D00001030093009B1C2000210A46FFF736FF0E
:1008E0001C20FFF765FF14E00B4A934211D10B4B1C
:1008F000DA6942F00202DA61DB6903F00203019374
:10090000019B1D2000210A46FFF720FF1D20FFF755
:100910004FFF03B05DF804FB0004004000100240EC
:10092000F0B583B000273C46DAE00122A2400B6814
:100930001340934240F0D3804D68122D2DD00BD838
:10094000022D27D003D85DB3012D1ED035E0032D35
:1009500030D0112D1BD030E0644EB54220D008D8E5
:10096000A6F58016B5421BD006F58036B54224D1D7
:1009700016E05F4EB54213D006F58036B5420FD073
:10098000A6F58016B54218D10AE0CF6815E0CF6809
:10099000043712E0CF6808370FE0CF680C370CE05F
:1009A0008D684DB1012D02D10261082705E0426139
:1009B000082702E0002700E00427FF2B01D8844627
:1009C00001E000F1040CFF2B02D84FEA840E03E093
:1009D000A4F1080E4FEA8E0EDCF800600F2202FA36
:1009E0000EF226EA020507FA0EF22A43CCF800209E
:1009F0004A6812F0805F72D03E4A956945F0010561
:100A00009561926902F001020192019A4FEA940EF7
:100A10000EF10205384A52F8256004F0030C4FEA43
:100A20008C0C0F2202FA0CF226EA0205334A90429D
:100A300013D002F5806290420DD002F580629042A0
:100A400007D002F58062904201D1032206E0042221
:100A500004E0022202E0012200E0002202FA0CF28D
:100A60002A430EF1020E244D45F82E204A6812F456
:100A7000803F05D005F580652A681A432A6004E0A6
:100A80001F4D2A6822EA03022A604A6812F4003FD6
:100A900004D01B4D6A681A436A6004E0184D6A6806
:100AA00022EA03026A604A6812F4801F04D0144DDF
:100AB000AA681A43AA6004E0114DAA6822EA030258
:100AC000AA604A6812F4001F04D00D4DEA6813436F
:100AD000EB6004E00A4DEA6822EA0303EB600134AC
:100AE0000F2C7FF622AF03B0F0BD00BF0000211035
:100AF00000003110001002400000014000080140D9
:100B00000004014083680B4201D00120704700209F
:100B1000704700BF0AB10161704709040161704765
:100B20002DE9F04188B0384B9A6942F010029A6181
:100B30009A6902F010020192019A9A6942F0080241
:100B40009A619A6902F008020292029A9A6942F046
:100B500004029A619B6903F004030393039B2B4EE9
:100B6000304640F2C1310022FFF7D4FF284D28461D
:100B70004FF460410022FFF7CDFF264F38464FF477
:100B800070610022FFF7C6FF40F2C13304934FF0BB
:100B90000108CDF8148002240794304604A9FFF719
:100BA000BFFE4FF460430493CDF8148007942846A9
:100BB00004A9FFF7B5FE4FF470630493CDF81480D9
:100BC0000794384604A9FFF7ABFE4FF400430493A3
:100BD000002405940694384604A9FFF7A1FE4FF4BB
:100BE0008063049305940694304604A9FFF798FEA9
:100BF0003023049305940694284604A9FFF790FE39
:100C000008B0BDE8F08100BF0010024000100140B4
:100C1000000C014000080140FEE700BF00B587B0AE
:100C200018484FF08043036008234360002383602B
:100C30004FF4FA72C26003618361FFF72BFD18B1B4
:100C40001148FD21FFF7E8FF06A94FF4805341F852
:100C5000103D0C48FFF77EFB20B10B4840F203111A
:100C6000FFF7DAFF00230093019306486946FFF778
:100C70002DFD20B104484FF48571FFF7CDFF07B07B
:100C80005DF804FB5C010020442E000800B587B02D
:100C90001748184B03600122426000238360C26042
:100CA00003618361FFF7F6FC20B113484FF48F71A5
:100CB000FFF7B2FF06A94FF4805341F8103D0C48EE
:100CC000FFF748FB20B10C484FF49271FFF7A4FFE7
:100CD00000230093019306486946FFF7F7FC20B113
:100CE000054840F22B11FFF797FF07B05DF804FBB2
:100CF0001C01002000040040442E000800B591B003
:100D00000223069301230A9310230B9300230D93D0
:100D100006A800F09DFC18B11348D121FFF77CFF15
:100D20000F2301930021029103910491059101A8E1
:100D300000F0CAFE18B10C48DF21FFF76DFF00F08C
:100D40005BFF0A4BA3FB00308009FFF73DFD042049
:100D5000FFF750FD4FF0FF3000210A46FFF7F6FC89
:100D600011B05DF804FB00BF442E0008D34D6210A3
:100D700070B582B000230193019307E0019A00212E
:100D8000324B43F82210019B01330193019A304BFF
:100D90001B689A42F2D32F4D2B682C4C012644F845
:100DA00023602B6854F823300093204601F0B0FAFA
:100DB0000146294801F000FC2B68009A44F82320E2
:100DC000019615E0019D244B03EB05151F4C2046B1
:100DD00001F07AF90146284601F0EEFB1D4B1A6836
:100DE00054F82230013344F82230019B013301933F
:100DF000019A1A4B1B6801339A42E3D3154B1A68C8
:100E00000099124B43F822103E22134B1A7400F043
:100E100043F8FFF773FFFFF783FEFFF7FFFEFFF7CF
:100E200035FF00F021FF0E4801210022FFF772FE7E
:100E30000C48FFF783FA1C20FFF7BAFC0A48FFF7BB
:100E40007DFA1D20FFF7B4FCFEE700BFF400002090
:100E500010000020C40000209C0100200C00002095
:100E6000001001405C0100201C01002010B5044668
:100E7000074B1B680748A0FB03308009FFF7A4FC61
:100E80004FF0FF3021460022FFF760FC002010BD2C
:100E900000000020D34D621008B50320FFF744FC8A
:100EA0000020FFF7E3FFFFF7BBFC002008BD00BFF9
:100EB000024A136801331360704700BFDC01002051
:100EC000014B1868704700BFDC010020704700BF6D
:100ED000FEE700BFFEE700BFFEE700BFFEE700BF82
:100EE000704700BF704700BF704700BF08B5FFF7ED
:100EF000DFFFFFF791FC08BD30B58DB0954A136850
:100F00000133136094484FF48061FFF7FBFD10F04C
:100F1000010F03D0914A13680133136090484FF4D6
:100F20000041FFF7EFFD10F0010F03D08D4A136869
:100F3000013313608C481021FFF7E4FD10F0010F1E
:100F400003D08A4A13680133136087482021FFF7D2
:100F5000D9FD10F0010F03D0854A136801331360E7
:100F60007C4B1A68834B1B689A4240F0C4827B4BCF
:100F70001A68814B1B689A4240F38D807F4B1A6838
:100F80007F4B53F82230012B11D17E4B20221A7453
:100F90003E2283F82020794B1968794A52F8213093
:100FA000013342F821300122774B1A7073E0734B02
:100FB0001A68734850F8222001921A6850F82230BB
:100FC000013340F8223001F07FF84378202B06D11E
:100FD0006A4B1A6801996A4B43F822105BE0674B31
:100FE0001A68674850F82230013340F8223001F087
:100FF0006BF84378202B16D1624B202283F82020F7
:101000003E2283F830205D4A116801985C4B43F81A
:101010002100116853F82120013243F821200122D8
:10102000594B1A7037E0554B1A680199544B43F8E5
:1010300022100123029315E0029D524B03EB05158C
:101040004F4C204601F040F80146284601F0B4FA22
:101050004A4B1A6854F82230013344F82230029B7C
:1010600001330293029A494B1B6801339A42E3D33E
:10107000424A11680198424B43F82100116853F825
:101080002120013243F821203E223E4B83F82020CC
:1010900001223D4B1A70334B1A68374B1B689A423A
:1010A00040F3A580354B1A68354B53F82230012B9D
:1010B00000F09D80314B1A68314B53F82230022BDF
:1010C00011D1304B3E221A74202283F820202B4B62
:1010D00019682B4A52F82130013B42F82130012295
:1010E000294B1A7083E0254B1A68254850F82220B6
:1010F00003921A6850F82230013340F8223000F091
:10110000E3FF4378202B16D11E4B3E2283F820208C
:10111000202283F83020194A11680398184B43F8AD
:101120002100116853F82120013A43F821200122BF
:10113000154B1A705BE0114A11680398104B43F885
:101140002100116853F82120023A43F8212001239D
:10115000049333E0C000002000100140BC000020D8
:1011600000080140B8000020000C0140B40000203D
:10117000B00000200400002020000020C400002057
:10118000F40000209C010020140000200C0000202E
:10119000049DAF4B03EB0515AE4C204600F094FFC9
:1011A0000146284601F008FAAB4B1A6854F8223081
:1011B000013344F82230049B01330493049AA74B73
:1011C0001B6801339A42E3D3A34A11680398A14BE9
:1011D00043F82100116853F82120013A43F82120F7
:1011E0003E229B4B83F8202001229D4B1A709D4B81
:1011F0001A689D4B1B689A424EDD974B1A68013264
:101200001A601B689348012240F8232000F05CFF1D
:101210004378202B09D1904B196800208D4A42F861
:1012200021001A68013A1A6036E08B4B1B68894826
:1012300050F82330059301F06BF80146844801F023
:10124000BBF90123069315E0069D814B03EB0515C1
:10125000804C204600F038FF0146284601F0ACF9EA
:101260007D4B1A6854F82230013344F82230069B33
:1012700001330693069A794B1B6801339A42E3D3F4
:10128000754B1A680599734B43F822103E22704B38
:101290001A740122724B1A70744B1A68724B1B68D5
:1012A0009A4240F31D816C4B1B68002B00F01881A3
:1012B000694C2368674D002245F823202368013BD1
:1012C0002360236855F823300793284601F020F85F
:1012D00001465F4801F070F9236855F82330012B6F
:1012E0002FD1089315E0089D594B03EB0515594C78
:1012F000204600F0E9FE0146284601F05DF9564B14
:101300001A6854F82230013344F82230089B013324
:101310000893089A514B1B6801339A42E3D34E4B12
:101320001A6807994B4B43F82210494B3E221A7416
:10133000202283F8202083F830200122484B1A70A5
:10134000CEE0454B1A68434B53F82230022B38D17C
:10135000414B19683F4A52F82130013B42F8213095
:101360000123099315E0099D394B03EB0515394C11
:10137000204600F0A9FE0146284601F01DF9364B33
:101380001A6854F82230013344F82230099B0133A3
:101390000993099A314B1B6801339A42E3D32E4BD0
:1013A0001A6807992B4B43F82210294B20221A74F4
:1013B0003E2183F8201083F830200122284B1A7038
:1013C0008EE0254B1A68234850F82230013340F84C
:1013D000223000F079FE4378202B49D11E4B19684A
:1013E0001C4A52F82130033B42F8213001230A9372
:1013F00015E00A9D164B03EB0515164C204600F030
:1014000063FE0146284601F0D7F8134B1A6854F8DA
:101410002230013344F822300A9B01330A930A9A9E
:101420000E4B1B6801339A42E3D30B4B1A680799A2
:10143000084B43F82210064B20221A7483F8202010
:101440003E2283F830200122054B1A7048E000BF8D
:101450009C010020F4000020C40000200C000020AB
:1014600014000020B400002020000020B000002064
:10147000234B1968234A52F82130023B42F82130AD
:1014800001230B9315E00B9D1F4B03EB05151D4C22
:10149000204600F019FE0146284601F08DF8184B51
:1014A0001A6854F82230013344F822300B9B013380
:1014B0000B930B9A154B1B6801339A42E3D3104BE5
:1014C0001A6807990F4B43F822100F4B20221A7409
:1014D0003E2183F8201083F8302001220C4B1A7033
:1014E00000230C4A13600C4A13600C4A13600C4A28
:1014F00013600C4A13600C48FEF7C2FF0DB030BDFC
:10150000C4000020F40000209C0100200C000020FA
:1015100014000020C0000020B8000020BC00002003
:10152000B4000020B00000205C01002038B5344B2E
:101530001B68002B5CD1334B1B7813F0FF0F3BD0A3
:10154000314B1B7813F0FF0F56D0304C2068304AD7
:101550001168304D2B6803EB0113113B2E49C95C18
:1015600012682B6800F060FD206800F087FD244BB6
:1015700018602A4B1A6823689A4218D10122226007
:101580002A6801322A602B68102B05D901222A60B3
:101590001F4A1368013313601D4B1B68042B2BD9A2
:1015A00001221B4B1A600022174B1A7024E0174AC5
:1015B0001368013313601FE0144C206800F0C2FC74
:1015C000206800F0F9FC0E4B1860144B1A68236871
:1015D0009A4208D1012323600A4A13700D4A13600E
:1015E0000B4A136008E0094A13680133136003E0F3
:1015F000034A1368013B13600948FEF741FF38BDF9
:1016000024000020AC000020140000201C0000205A
:1016100018000020080000209C0100202800002065
:101620001C01002082B0084B1B68084AA2FB032360
:101630005B0A00FB03F0019000BF019B5A1E019260
:10164000002BF9D102B0704700000020D34D62108A
:1016500070B582B00446036813F0010F6BD0A84B3D
:101660005B6803F00C03042B0AD0A54B5B6803F006
:101670000C03082B0DD1A24B5B6813F4803F08D0FC
:101680009F4B1B6813F4003F55D06368002B52D169
:10169000B8E16368B3F5803F05D1994A136843F414
:1016A0008033136026E063B903F1804303F504330C
:1016B0001A6822F480321A601A6822F480221A60B2
:1016C00018E0B3F5A02F0CD103F18043A3F53C3310
:1016D0001A6842F480221A601A6842F480321A6052
:1016E00008E0874B1A6822F480321A601A6822F4E4
:1016F00080221A6063687BB1FFF7E2FB054605E0D4
:10170000FFF7DEFB401B642800F27E817C4B1B68E8
:1017100013F4003FF4D00EE0FFF7D2FB054605E0DE
:10172000FFF7CEFB401B642800F27081744B1B68EE
:1017300013F4003FF4D1236813F0020F50D0704B24
:101740005B6813F00C0F0AD06D4B5B6803F00C0361
:10175000082B16D16A4B5B6813F4803F11D1684B9C
:101760001B6813F0020F03D02369012B40F0508156
:10177000634A136823F0F803616943EAC103136005
:101780002EE02369D3B101225E4B1A60FFF798FB6C
:10179000054605E0FFF794FB401B022800F23A8162
:1017A000574B1B6813F0020FF4D0554A136823F00F
:1017B000F803616943EAC103136011E00022514B51
:1017C0001A60FFF77DFB054605E0FFF779FB401B3C
:1017D000022800F221814A4B1B6813F0020FF4D15A
:1017E000236813F0080F29D0A369ABB10122464B3F
:1017F0001A60FFF765FB054605E0FFF761FB401B3C
:10180000022800F20B813E4B5B6A13F0020FF4D00A
:101810000120FFF707FF11E000223B4B1A60FFF7A2
:101820004FFB054605E0FFF74BFB401B022800F28B
:10183000F780334B5B6A13F0020FF4D1236813F087
:10184000040F00F089802E4BDB6913F0805F0BD111
:101850002B4BDA6942F08052DA61DB6903F0805386
:101860000193019B012500E00025284B1B6813F420
:10187000807F13D1254A136843F480731360FFF708
:101880001FFB064605E0FFF71BFB801B642800F2E8
:10189000C9801E4B1B6813F4807FF4D0E368012BD2
:1018A00005D1174A136A43F00103136222E063B9BA
:1018B00003F1804303F504331A6A22F001021A622D
:1018C0001A6A22F004021A6214E0052B09D10C4BAB
:1018D0001A6A42F004021A621A6A42F001021A629B
:1018E00008E0074B1A6A22F001021A621A6A22F013
:1018F00004021A62E368CBB1FFF7E2FA06460FE092
:101900000010024000004242800442420070004049
:10191000FFF7D6FA801B41F28833984200F28480A8
:10192000494B1B6A13F0020FF2D00FE0FFF7C8FA21
:10193000064606E0FFF7C4FA801B41F2883398425E
:1019400074D8414B1B6A13F0020FF3D125B13E4A04
:10195000D36923F08053D361E369002B68D03A4AFE
:10196000526802F00C02082A64D0022B37D1002200
:10197000364B1A60FFF7A4FA054604E0FFF7A0FA19
:10198000401B022858D8304B1B6813F0007FF5D15C
:10199000236AB3F5803F06D12B49CB6A23F00F02AF
:1019A000A3681343CB622848436823F47411236A65
:1019B000626A13430B4343600122244B1A60FFF712
:1019C0007FFA044604E0FFF77BFA001B022835D8B3
:1019D0001D4B1B6813F0007FF5D0002031E0002282
:1019E0001A4B1A60FFF76CFA044604E0FFF768FA36
:1019F000001B022824D8144B1B6813F0007FF5D17C
:101A000000201EE001201CE003201AE0032018E063
:101A1000012016E0032014E0032012E0032010E070
:101A200003200EE003200CE003200AE0032008E07E
:101A3000002006E0012004E0032002E0032000E093
:101A4000032002B070BD00BF00100240600042429F
:101A500030B488B0184C04AD20686168A268E368AF
:101A60000FC56D4654F8100F6168A268E3680FC592
:101A7000124B5A6802F00C03082B19D1C2F38343AE
:101A800008A90B4413F8103C12F4803F0CD00B4A09
:101A9000D26A02F00F020A4412F8200C084AB2FB84
:101AA000F0F003FB00F004E0064800FB03F000E068
:101AB000034808B030BC7047142E000800100240E4
:101AC00000127A0000093D0038B50446036813F09F
:101AD000020F06D045494B6823F0F0028368134398
:101AE0004B60236813F0010F4DD06268012A05D1C5
:101AF0003E4B1B6813F4003F0DD16BE0022A05D169
:101B00003A4B1B6813F0007F05D165E0374B1B682B
:101B100013F0020F62D035494B6823F003031343DF
:101B20004B60FFF7CDF905466368012B0ED106E047
:101B3000FFF7C6F9401B41F28833984250D82B4B2F
:101B40005B6803F00C03042BF2D11CE0022B15D1CF
:101B500006E0FFF7B5F9401B41F28833984241D8BF
:101B6000224B5B6803F00C03082BF2D10BE0FFF76C
:101B7000A7F9401B41F28833984235D81B4B5B686C
:101B800013F00C0FF3D1236813F0040F06D017499C
:101B90004B6823F4E062E36813434B60236813F05F
:101BA000080F07D0114A536823F46053216943EAB0
:101BB000C1035360FFF74CFF0C4B5B68C3F3031387
:101BC0000B4AD35CD8400B4B18600020FFF74EF94E
:101BD000002038BD012038BD012038BD012038BDAE
:101BE000032038BD032038BD032038BD001002405B
:101BF000342E000800000020014B1868704700BF19
:101C00000000002008B503484FF480410022FEF791
:101C100081FF08BD000C014008B503484FF4005196
:101C20000022FEF777FF08BD000C014008B503480D
:101C30004FF400510122FEF76DFF08BD000C01407A
:101C400008B503484FF400410122FEF763FF08BDC9
:101C5000000C014008B503484FF400410022FEF794
:101C600059FF08BD000C014010B5234C204640210F
:101C70000022FEF74FFF204680210022FEF74AFF98
:101C800020464FF480710022FEF744FF20464FF4B7
:101C900000710022FEF73EFFA4F5006420464FF4D9
:101CA00080710022FEF736FF20464FF400710022BB
:101CB000FEF730FF20464FF480610022FEF72AFF36
:101CC00020464FF400610022FEF724FF04F58064F3
:101CD00020464FF400510022FEF71CFF20464FF42F
:101CE00080410022FEF716FF20464FF400410022FB
:101CF000FEF710FF10BD00BF0010014010B50446F4
:101D000010F0010F05D03D4840210122FEF702FFEF
:101D100004E03A4840210022FEF7FCFE14F0020FD6
:101D200005D0364880210122FEF7F4FE04E0334856
:101D300080210022FEF7EEFE14F0040F06D02F489B
:101D40004FF480710122FEF7E5FE05E02B484FF4C9
:101D500080710022FEF7DEFE14F0080F06D027483F
:101D60004FF400710122FEF7D5FE05E023484FF441
:101D700000710022FEF7CEFE14F0100F06D02048AE
:101D80004FF480710122FEF7C5FE05E01C484FF4B8
:101D900080710022FEF7BEFE14F0200F06D0184816
:101DA0004FF400710122FEF7B5FE05E014484FF430
:101DB00000710022FEF7AEFE14F0400F06D010486E
:101DC0004FF480610122FEF7A5FE05E00C484FF4B8
:101DD00080610022FEF79EFE14F0800F06D00848B6
:101DE0004FF400610122FEF795FE10BD04484FF448
:101DF00000610022FEF78EFE10BD00BF0010014002
:101E00000008014010B5044610F0010F05D03D4810
:101E100040210122FEF77EFE04E03A4840210022E4
:101E2000FEF778FE14F0020F05D03648802101221B
:101E3000FEF770FE04E0334880210022FEF76AFEC0
:101E400014F0040F06D02F484FF480710122FEF7E2
:101E500061FE05E02B484FF480710022FEF75AFE28
:101E600014F0080F06D027484FF400710122FEF746
:101E700051FE05E023484FF400710022FEF74AFEB0
:101E800014F0100F06D020484FF480710122FEF7A5
:101E900041FE05E01C484FF480710022FEF73AFE37
:101EA00014F0200F06D018484FF400710122FEF7FD
:101EB00031FE05E014484FF400710022FEF72AFEBF
:101EC00014F0400F06D010484FF480610122FEF755
:101ED00021FE05E00C484FF480610022FEF71AFE57
:101EE00014F0800F06D008484FF400610122FEF77D
:101EF00011FE10BD04484FF400610022FEF70AFEF7
:101F000010BD00BF001001400008014008B50328C3
:101F100005D0042805D0022805D0002004E00120C7
:101F200002E0052000E004204B1E0F2B01D81946CB
:101F300001E000210846083001EB0010C0B2FFF7B5
:101F400061FF08BD08B501380C2834D8DFE800F07F
:101F5000070C0F1316191D2023272A2D3100FFF718
:101F600051FEFFF759FE08BDFFF76AFE08BD382095
:101F7000FFF748FF08BDFFF76DFE08BDFFF760FEE5
:101F800008BD0E20FFF73EFF08BDFFF763FE08BD4A
:101F9000FFF756FE08BD0120FFF734FF08BDFFF72D
:101FA00059FE08BDFFF74CFE08BD0620FFF72AFFCB
:101FB00008BDFFF74FFE08BD82B000230193013832
:101FC0000C282ED8DFE800F0070A0D101316191C94
:101FD0001F2225282B000023019322E000230193D8
:101FE0001FE0002301931CE00923019319E0002363
:101FF000019316E00023019313E00923019310E0FD
:10200000002301930DE0002301930AE009230193CB
:1020100007E00023019304E00023019301E028235B
:102020000193019802B0704708B50138072823D8FA
:10203000DFE800F004090C1114191C20FFF7E2FD81
:10204000FFF7EAFD08BDFFF7FBFD08BD1046194686
:10205000FFF75CFF08BDFFF7FDFD08BDFFF7D2FDF0
:10206000FFF7E4FD08BDFFF7EBFD08BD0846FFF7ED
:1020700045FE08BDFFF7EEFD08BD00BF82B000239E
:102080000193013807281CD8DFE800F004070A0D87
:10209000101316190023019313E00023019310E09D
:1020A000002301930DE0092301930AE0002301932B
:1020B00007E00023019304E00023019301E00923DA
:1020C0000193019802B0704770B406467A4C7B4D7C
:1020D0000FCD0FC42B6823703368013B032B00F234
:1020E000E780DFE813F004004B00D400DD007368E4
:1020F000052B00F2DD80DFE803F0030A15202B3604
:102100006D4C6F4D0FCD0FC42B682370D0E0B368BA
:10211000002B40F0CD80684C6A4D0FCD0FC42B686A
:102120002370C5E0B368002B40F0C280624C664D5E
:102130000FCD0FC42B682370BAE0B368002B40F0BA
:10214000B7805D4C614D0FCD0FC42B682370AFE09D
:10215000B368002B40F0AC80574C5D4D0FCD0FC4E1
:102160002B682370A4E0B368002B40F0A180524C90
:10217000584D0FCD0FC42B68237099E07368052B61
:1021800000F29680DFE803F0030A2D3759634A4CCA
:10219000514D0FCD0FC42B68237089E0B368012B1C
:1021A0000BD0022B13D0002B40F08280424C4B4DC1
:1021B0000FCD0FC42B6823707AE0F368002B77D122
:1021C0003D4C474D0FCD0FC42B68237070E0F36872
:1021D000002B6DD1384C434D0FCD0FC42B682370AD
:1021E00066E0B368002B63D1334C3F4D0FCD0FC475
:1021F0002B6823705CE0B368012B0AD0022B12D04D
:10220000002B55D12C4C394D0FCD0FC42B682370AA
:102210004EE0F368002B4BD1274C354D0FCD0FC44A
:102220002B68237044E0F368002B41D1224C314DE0
:102230000FCD0FC42B6823703AE0B368002B37D161
:102240001D4C2D4D0FCD0FC42B68237030E0B368AB
:10225000012B0AD0022B11D0002B29D1164C274D6F
:102260000FCD0FC42B68237022E0F36803BB124C20
:10227000234D0FCD0FC42B68237019E0F368BBB951
:102280000D4C204D0FCD0FC42B68237010E07368E8
:1022900073B9094C1C4D0FCD0FC42B68237007E098
:1022A00073682BB9044C194D0FCD0FC42B682370E4
:1022B000014870BC704700BFC80000206C2E0008A9
:1022C000802E0008942E0008A82E0008BC2E0008BE
:1022D000D02E0008E42E0008F82E00080C2F00086D
:1022E000202F0008342F0008482F00085C2F00081A
:1022F000702F0008842F0008982F0008AC2F0008CA
:10230000C02F0008D42F0008E82F0008FC2F000879
:1023100070B406467A4C7B4D0FCD0FC42B682370EA
:102320003368013B032B00F2E780DFE813F0040081
:102330004B00D400DD007368052B00F2DD80DFE880
:1023400003F0030A15202B366D4C6F4D0FCD0FC4D3
:102350002B682370D0E0B368002B40F0CD80684C30
:102360006A4D0FCD0FC42B682370C5E0B368002BF6
:1023700040F0C280624C654D0FCD0FC42B682370B6
:10238000BAE0B368002B40F0B7805D4C5F4D0FCDD5
:102390000FC42B682370AFE0B368002B40F0AC8013
:1023A000574C5A4D0FCD0FC42B682370A4E0B3686F
:1023B000002B40F0A180524C544D0FCD0FC42B6820
:1023C000237099E07368052B00F29680DFE803F034
:1023D000030A2D3759634A4C4B4D0FCD0FC42B6860
:1023E000237089E0B368012B0BD0022B13D0002B94
:1023F00040F08280424C464D0FCD0FC42B682370B5
:102400007AE0F368002B77D13D4C424D0FCD0FC4DD
:102410002B68237070E0F368002B6DD1384C3D4D74
:102420000FCD0FC42B68237066E0B368002B63D117
:10243000334C374D0FCD0FC42B6823705CE0B3686D
:10244000012B0AD0022B12D0002B55D12C4C304D31
:102450000FCD0FC42B6823704EE0F368002B4BD1D7
:10246000274C2D4D0FCD0FC42B68237044E0F3682B
:10247000002B41D1224C284D0FCD0FC42B68237067
:102480003AE0B368002B37D11D4C214D0FCD0FC45E
:102490002B68237030E0B368012B0AD0022B11D0D7
:1024A000002B29D1164C1A4D0FCD0FC42B68237069
:1024B00022E0F36803BB124C184D0FCD0FC42B68FC
:1024C000237019E0F368BBB90D4C144D0FCD0FC448
:1024D0002B68237010E0736873B9094C0A4D0FCD57
:1024E0000FC42B68237007E073682BB9044C064DAA
:1024F0000FCD0FC42B682370014870BC704700BF1C
:10250000D80000206C2E000810300008243000088D
:10251000383000084C300008603000087430000883
:10252000002103E00B4B5B58435004310A480B4B2E
:1025300042189A42F6D30A4A02E0002342F8043BCA
:10254000084B9A42F9D3FDF795FE00F00FF8FEF71D
:102550000FFC7047C83000080000002090000020E9
:1025600090000020E4010020FEE700000E4B70B553
:102570001E460E4C0025E41AA410A54204D056F8BD
:10258000253098470135F8E700F038FC084B094C36
:102590001E46E41AA4100025A54204D056F82530A2
:1025A00098470135F8E770BDC0300008C03000081A
:1025B000C0300008C43000080EB400B54FF40271FA
:1025C0009CB0ADF814106FF00041049107914FF6E4
:1025D000FF711DABADF81610084953F8042B02909B
:1025E0000690086802A9019300F064F8029B00229B
:1025F0001A701CB05DF804EB03B070478C0000202B
:102600002DE9F0478E688246B3420C4690469946C3
:1026100040D38A8912F4906F3AD025680969022361
:102620006F1A656905EB450595FBF3F57B1C4B447B
:102630009D4238BF1D4653050FD5294600F03AFB91
:10264000064698B121693A4600F0CAFAA38923F4F4
:10265000906343F08003A38113E02A4600F080FBDF
:10266000064670B95046216900F0E0FA0C23CAF81A
:102670000030A3894FF0FF3043F04003A381BDE851
:10268000F08726613E4426604E466561ED1BA560DD
:10269000B14500D24E4632462068414600F0ABFAC2
:1026A000A36800209B1BA36023681E442660BDE82E
:1026B000F08700002DE9F0439DB003938B89064617
:1026C0001C060D4690460CD50B6953B9402100F00D
:1026D000F1FA2860286110B90C233360CCE0402364
:1026E0006B610023099320238DF8293030238DF866
:1026F0002A3043461C4613F8012B1AB9B4EB0809DB
:102700000FD002E0252AF5D1F8E7304629464246A7
:102710004B46FFF775FF013000F0A980099B4B4441
:1027200009932378002B00F0A28000234FF0FF32A2
:1027300004930793059206938DF853301A9304F18E
:1027400001084446DFF8489121784846052200F008
:1027500039FA08F10108049B30B1C9EB00000122ED
:10276000824013430493ECE7D80644BF20228DF83F
:102770005320190744BF2B228DF8532022782A2A90
:1027800002D0079923460EE0039A0134111D126806
:102790000391002ABBBF524243F002030792079203
:1027A000B8BF04930AE01C4622780133303A092A64
:1027B00003D80A2000FB0121F5E7079123782E2B8F
:1027C0001AD163782A2B0AD1039B02341A1D1B6885
:1027D0000392002BB8BF4FF0FF3305930CE0611C50
:1027E00000220C4623780131303B092B03D80A2004
:1027F00000FB0232F5E70592DFF898802178404629
:10280000032200F0DFF938B1049AC8EB000040233E
:10281000834013430493013421781A48062204F1BB
:1028200001088DF8281000F0CDF988B1164B33B9A6
:10283000039B073323F007030833039313E003AB31
:102840000093304604A92A46104BAFF3008007E0FE
:1028500003AB0093304604A92A460C4B00F092F8D3
:10286000421C074603D0099B3B44099341E7AB89CF
:102870005B0601D4099801E04FF0FF301DB0BDE8C0
:10288000F08300BF9430000800000000012600081B
:102890008A300008903000082DE9F84391461F4621
:1028A0008A680B6906469342B8BF1346C9F80030E0
:1028B00091F843200C46DDF8208012B10133C9F8AD
:1028C00000302368990642BFD9F800300233C9F8B6
:1028D0000030256815F006051CD094F843302268B6
:1028E000003318BF012392061FD5E118302081F86C
:1028F00043005A1C94F845102244023382F84310D6
:1029000013E03046394604F119020123C047013073
:1029100007D00135E368D9F800209B1A9D42F0DB0F
:10292000DBE74FF0FF30BDE8F8833046394604F16D
:102930004302C0470130F4D02268D9F80050E36860
:1029400002F00602042A08BF5D1B2269A3680CBFBF
:1029500025EAE57500259342C4BF9B1AED184FF098
:102960000009A9450ADA3046394604F11A02012362
:10297000C0470130D5D009F10109F2E70020BDE8D8
:10298000F88300002DE9FF410C461746227E984649
:102990006E2A06460A9B01F1430100F0B08012D86E
:1029A000632A23D00AD8002A00F0BD80582A40F0BC
:1029B000CC8084F84520DFF804E257E0642A1ED07A
:1029C000692A1CD0C1E0732A00F0B18009D86F2AAF
:1029D0002ED0702A40F0B980226842F02002226096
:1029E0003FE0752A24D0782A3BD0AEE01A6804F183
:1029F0004205111D1960136884F84230A9E020686F
:102A00001A6810F0800F02D0101D186008E010F056
:102A1000400F02F10400186002D0B2F9003000E06B
:102A20001368002B3EDA2D225B4284F8432039E004
:102A300020681A6810F0800F02D0101D186007E09F
:102A400010F0400F02F10400186001D0138800E07C
:102A50001368227EDFF864E16F2A0CBF08220A2285
:102A60001CE07822DFF858E184F8452022681868D5
:102A700012F0800F00F104051D6003D1550601D549
:102A8000038800E00368D00744BF42F020022260C0
:102A90001BB9226822F0200222601022002084F854
:102AA000430002E0DFF814E10A226568002DA8BFA8
:102AB0002068A560A4BF20F00400206003B965B1C0
:102AC0000D46B3FBF2F002FB10331EF8033005F89D
:102AD000013D03460028F4D100E00D46082A0BD141
:102AE0002368DA0708D5236962689A42DEBF30237B
:102AF00005F8013C05F1FF35491B21612EE02568F1
:102B00001A6815F0800F606903D0151D1D601368E9
:102B100008E015F0400F02F104051D60136801D0B4
:102B2000188000E01860002323610D4616E01A6843
:102B3000111D1960156800212846626800F042F8EE
:102B400008B1401B6060636804E004F1420584F84A
:102B5000422001232361002384F84330CDF8008014
:102B60003046214603AA3B46FFF796FE013002D1CC
:102B70004FF0FF301FE0304639462A462369C047F0
:102B80000130F5D023689B0705D4E068039B984289
:102B9000B8BF18460FE00025E368039A9B1A9D42D0
:102BA000F3DA3046394604F119020123C0470130F7
:102BB000DED00135F0E704B0BDE8F0819B300008BD
:102BC000AC30000810B5C9B202449042034605D0AB
:102BD0001C7801308C42F8D1184610BD002010BD81
:102BE00010B5431E0A44914204D011F8014B03F87A
:102BF000014FF8E710BD814210B501EB020301D38C
:102C0000421E0BE09842FBD28118D21AD34204D064
:102C100013F8014D01F8014DF8E710BD994204D0B9
:102C200011F8014B02F8014FF8E710BD30B500294B
:102C30003CD051F8042C0B1F1D49002AB8BF9B182B
:102C40000A680C4612B95A600B6030BD93420DD22F
:102C500019685818904201BF5A5852181A604268B1
:102C600023605A6030BD994203D80A465168002952
:102C7000F9D1146815199D420AD11B682344D01854
:102C80008842136012D10868034413604B680CE05B
:102C900002D90C23036030BD1C681819884201BF9B
:102CA00008684968001918605960536030BD00BF5A
:102CB000EC00002070B5CC1C24F0030408340C2C6C
:102CC00038BF0C24002C064603DA0C2333600020A6
:102CD00070BD8C42F9D3204A136810461946A1B141
:102CE0000A68121B0ED40B2A03D90A608B188C5069
:102CF0001FE08B420BBF5A684A6802605A6018BFD7
:102D00000B4616E00B464968E9E7144D2B681BB9E2
:102D1000304600F04BF828603046214600F046F877
:102D2000421C0346D1D0C51C25F0030585420AD1BB
:102D30001C6003F10B001A1D20F00700821A0AD054
:102D40005142995070BD3046E91A00F02FF8013019
:102D5000BBD02B46ECE770BDEC000020E800002063
:102D6000F8B5074615460E4621B91146BDE8F840AC
:102D7000FFF7A0BF1AB9FFF759FF2846F8BD00F0CA
:102D800025F8A8420ED238462946FFF793FF04469D
:102D900050B131462A46FFF723FF38463146FFF748
:102DA00045FF01E03046F8BD2046F8BD38B5064C79
:102DB000002305460846236000F012F8431C02D1A8
:102DC000236803B12B6038BDE001002051F8040CEA
:102DD0000028BEBF091851F8043CC01804387047D9
:102DE000044A05491368002B08BF0B4618441060BD
:102DF00018467047F0000020E8010020F8B500BF39
:102E0000F8BC08BC9E467047F8B500BFF8BC08BCCB
:042E10009E46704723
:102E140002030405060708090A0B0C0D0E0F101017
:102E24000102030405060708090A0B0C0D0E0F1016
:102E34000000000000000000010203040607080966
:102E44005372632F6D61696E2E6300002020202071
:102E54002564000020202025640000002020256433
:102E640000000000202564002020202020202020B5
:102E74002020202020202020000000002050726903
:102E84006E7420202020202020202020000000001C
:102E94002066696C652031202020202020202020FD
:102EA400000000002066696C65203220202020206C
:102EB40020202020000000002066696C652033205B
:102EC4002020202020202020000000002066696CA3
:102ED4006520342020202020202020200000000015
:102EE4002066696C652035202020202020202020A9
:102EF400000000002053657474696E6773202020FD
:102F040020202020000000002054797065206F6686
:102F140020706C61737469630000000020414253A7
:102F240020706C617374696320202020000000000D
:102F340020504C4120706C61737469632020202000
:102F44000000000020457874727564657220746511
:102F54006D702E20000000002043616C6962726174
:102F64007465202020202020000000002059657373
:102F74002C20646F20697420202020200000000091
:102F8400204E6F2C20646F6E277420646F20697448
:102F940000000000204272696768746E65737320D4
:102FA4002020202000000000204C616E67756167BE
:102FB40065202020202020200000000020456E678E
:102FC4006C6973682020202020202020000000004D
:102FD400205275737369616E2020202020202020E8
:102FE40000000000204368616E67652066696C61BB
:102FF4006D656E74000000002048656C7020202010
:103004002020202020202020000000005F5F5F4D52
:1030140041494E204D454E555F5F5F5F0000000003
:103024005F5F53454C4543542046494C455F5F5FC1
:10303400000000005F5F5F5F53455454494E47539F
:103044005F5F5F5F0000000054595045204F4620E9
:10305400504C41535449435F000000005F5F5F439D
:10306400414C4942524154453F5F5F5F00000000BC
:103074005F5F5F5F4C414E47554147455F5F5F5F10
:10308400000000004300232D302B2000686C4C000E
:103094006566674546470030313233343536373854
:1030A40039414243444546003031323334353637B2
:0C30B4003839616263646566000000004A
:0430C0003D020008C5
:0430C40015020008E9
:1030C80000366E01FA000000010000000300000055
:1030D8000A000000010000000100000001000000DB
:1030E80096000000E80300000D000000000000004A
:1030F80000000000000000000000000000000000C8
:1031080000000000000000000000000088300008F7
:1031180000000000000000000000000000000000A7
:103128000000000000000000000000000000000097
:103138000000000000000000000000000000000087
:103148000000000000000000000000002C0000202B
:0400000508002521A9
:00000001FF
